:020000040000FA
:100000000A128A11FC2FFF1B0D2883137F188317F8
:100010000008840A0319FF0A080000308A00040857
:10002000840A82070034013400340A340034643412
:100030000034E83403341034273450344F3454340B
:1000400020342034203443344F344E34543420345C
:1000500020342034533445344E3400342534323483
:100060002E34313469340034253433342E34313471
:0400700069340034BB
:1002EA000A128A1191210A128A1183160313111410
:1002FA0008000A128A1191210A128A11831603131D
:10030A00111508000A128A1191210A128A1170081D
:10031A0083120313930008008316031314199629F2
:10032A009729912911081F39031D9C299D29912973
:10033A000800F10083120313081771088600881752
:10034A001A30F000F00BA729000083120313881358
:10035A000800F100F0013A3071020318B529B629F4
:10036A00BE2930307102031CBB29BC29BE29F00109
:10037A00F00A700C0800F300F201731CC529C629A3
:10038A00CA297008F1007108F2070310F00D031072
:10039A00F30C7308031DD229D329C2297208080055
:1003AA000030F000F1000A128A1115220A128A118D
:1003BA000130F0000030F1000A128A1115220A12E7
:1003CA008A110D30F500FB30F400F40BEA29F50B25
:1003DA00EA29EF290800F401F501701CF529F6292C
:1003EA00FC297208F4070318F50A7308F5070130A7
:1003FA000310F20DF30DFF3E031DFD29013003101A
:10040A00F10CF00CFF3E031D042A70087104031D51
:10041A000F2A102AF2297508F1007408F000080062
:10042A008312031308130D30F300FB30F200F20BB2
:10043A001C2AF30B1C2A212A83120313881770081B
:10044A0086000D30F300FB30F200F20B2A2AF30B80
:10045A002A2A2F2A8312031388130D30F300FB3044
:10046A00F200F20B362AF30B362A3B2A08007403F1
:10047A007504031D412A422A542A76087F3EF80051
:10048A0077080318013E003EF9007908F100780860
:10049A00F0000A128A1115220A128A11642A0230FD
:1004AA0074067504031D5A2A5B2A642A7608BF3E1D
:1004BA00F80077080318013E003EF9004A2A0800AE
:1004CA000A128A1191210A128A11831603139115AD
:1004DA000A128A1191210A128A118312031313082C
:1004EA00F200F3017208F4007308F5000A128A1187
:1004FA0091210A128A1170037104031D852A862A22
:10050A008A2A8316031391128D2A831603139116CE
:10051A0011167508F1007408F000080028308312DB
:10052A000313940083160313910183120313200803
:10053A00A4002108A5002208A6002308A70002306B
:10054A000310A40DA50DA60DA70DFF3E031DA52A98
:10055A002708F3002608F2002508F1002408F00015
:10056A000030F7007A30F6001230F5000030F4005F
:10057A000A128A118B230A128A117008FF3E831607
:10058A000313930094018715071608007808790465
:10059A000319D02AD12A002BFD01FD0ADF2A0130D6
:1005AA000310F80DF90DFF3E031DD52A0130FC009A
:1005BA007C08FD07F91FE22AE32AD42A79087B027C
:1005CA00031DE92A78087A02031CEC2AED2AF32A89
:1005DA007808FA027908031CFB03FB0201300310B6
:1005EA00F90CF80CFF3E031DF42A0130FD02031D2D
:1005FA00FF2A002BE32A7B08F9007A08F800080092
:10060A00F701F8012A2B77087207F5007308F4003E
:10061A000318F40AF71F122BF4037408F60076087D
:10062A0083120313FF00750884000A128A1103203B
:10063A000A128A110A128A119E210A128A1101309B
:10064A00F7070318F80A0030F80777087207F50069
:10065A007308F4000318F40AF71F342BF403740820
:10066A00F600760883120313FF00750884000A1245
:10067A008A1103200A128A11003A031D452B462BC0
:10068A00082B0800F501F6017008710403194E2BB6
:10069A004F2B862BF701F70A5D2B01300310F00D63
:1006AA00F10DFF3E031D532B0130F4007408F707C8
:1006BA00F11F602B612B522B01300310F50DF60D43
:1006CA00FF3E031D622B71087302031D6E2B700817
:1006DA007202031C712B722B792B7008F2027108BB
:1006EA00031CF303F302751401300310F10CF00C30
:1006FA00FF3E031D7A2B0130F702031D852B862B43
:10070A00612B7608F1007508F00008000030FC0043
:10071A000030FB000030FA000030F9007308720460
:10072A007104700403199A2B9B2BE82BFD01FD0A17
:10073A00AB2B0130F8000310F00DF10DF20DF30DA3
:10074A00F80BA02B0130F8007808FD07F31FAE2B39
:10075A00AF2B9E2B0130F8000310F90DFA0DFB0D9B
:10076A00FC0DF80BB12B73087702031DC62B720818
:10077A007602031DC62B71087502031DC62B70086D
:10078A007402031CC92BCA2BD92B7008F4027108F6
:10079A00031C710FF5027208031C720FF60273082C
:1007AA00031C730FF702791401300310F30CF20CD7
:1007BA00F10CF00CFF3E031DDA2B0130FD02031D84
:1007CA00E72BE82BAF2B7C08F3007B08F2007A08B2
:1007DA00F1007908F00008003430F500F130F40037
:1007EA00F40BF52BF50BF52BFA2B3030F00000301B
:1007FA00F1000A128A1115220A128A110D30F50027
:10080A00FB30F400F40B072CF50B072C0C2C3030C2
:10081A00F0000030F1000A128A1115220A128A1118
:10082A004230F400F40B172C00003030F000003096
:10083A00F1000A128A1115220A128A114230F400B2
:10084A00F40B252C00003830F0000030F1000A12B9
:10085A008A1115220A128A112730F400F40B332C5C
:10086A00362C0830F0000030F1000A128A111522E5
:10087A000A128A112730F400F40B412C442C01305F
:10088A00F0000030F1000A128A1115220A128A11A8
:10089A000D30F500FB30F400F40B512CF50B512C04
:1008AA00562C0630F0000030F1000A128A11152287
:1008BA000A128A112730F400F40B612C642C0C30D4
:1008CA00F0000030F1000A128A1115220A128A1168
:1008DA002730F400F40B6F2C722C080083120313D8
:1008EA008501831603138501831203138601831678
:1008FA0003138601831203138701831603138701E7
:10090A0083120313880183160313880183120313C6
:10091A008901831603138901831603178801890144
:10092A00003083120313A3000130A2008630A10015
:10093A00A030A0000A128A1193220A128A110A12FE
:10094A008A11F1230A128A110A128A11D5210A126E
:10095A008A110130F4000030F5000130F600003051
:10096A00F7000A128A113C220A128A110B30F2008D
:10097A008030F3000A128A1105230A128A110A1218
:10098A008A1175210A128A115130F0000030F100E3
:10099A000A128A1187210A128A110030F000F10026
:1009AA000A128A1165220A128A1171088312031324
:1009BA00C2007008C1000A128A117E210A128A1125
:1009CA001A3083120313B000F730AF00AF0BEB2CD1
:1009DA00B00BEB2CF02C0A128A1175210A128A111B
:1009EA006130F0000030F1000A128A1187210A12E0
:1009FA008A110030F000F1000A128A1165220A12E7
:100A0A008A11710883120313C6007008C5000A12FE
:100A1A008A117E210A128A111A3083120313B00036
:100A2A00F730AF00AF0B172DB00B172D1C2D0A1284
:100A3A008A1175210A128A11D030F0000030F100B3
:100A4A000A128A1187210A128A111130F000003025
:100A5A00F1000A128A1187210A128A110A128A11CE
:100A6A007E210A128A111A3083120313B000F7305A
:100A7A00AF00AF0B3E2DB00B3E2D432D0A128A114B
:100A8A0075210A128A11D130F0000030F1000A12E1
:100A9A008A1187210A128A110030F000F1000A1225
:100AAA008A1165220A128A11710883120313C4007B
:100ABA007008C3000A128A117E210A128A111A309A
:100ACA0083120313B000F730AF00AF0B6A2DB00BDF
:100ADA006A2D6F2D223083120313AF002F08A00056
:100AEA004608A2004508A10031300A128A11F525EC
:100AFA000A128A110230F4000030F5000130F600C3
:100B0A000030F7000A128A113C220A128A11313087
:100B1A00F2000030F3000A128A1105230A128A1120
:100B2A001C3083120313AF002F08A0004208A20052
:100B3A004108A10031300A128A11F5250A128A11D8
:100B4A000230F4000030F5000830F6000030F700FB
:100B5A000A128A113C220A128A113130F20000303C
:100B6A00F3000A128A1105230A128A11223083120B
:100B7A000313AF002F08A0004408A2004308A100F5
:100B8A0031300A128A11F5250A128A110230F4004C
:100B9A000030F5000C30F6000030F7000A128A1116
:100BAA003C220A128A113130F2000030F3000A1294
:100BBA008A1105230A128A11DF300A128A119E212C
:100BCA000A128A1143300A128A119E210A128A11C4
:100BDA008312031345088500C42C0A128A110028BF
:100BEA0083120313AA002130A3002308A600E52FCD
:100BFA0025302E060319022E032E0F2E2E08A300CF
:100C0A002A0884002308831380000130A3002308E4
:100C1A00AA07E52FAB01AC01A701200884000A123C
:100C2A008A110D200A128A110A128A11AE210A1299
:100C3A008A11031C212E222E622E83120313AB016A
:100C4A00AC010A30F0000030F100831203132C08C3
:100C5A00F3002B08F2000A128A11F0210A128A11F3
:100C6A00710883120313AC007008AB0020088400DB
:100C7A000A128A110D200A128A11D03EA300FF30EF
:100C8A0003180030A4002308AB070318AC0A240891
:100C9A00AC070130A3002308A007200884000A1229
:100CAA008A110D200A128A110A128A11AE210A1219
:100CBA008A110318612E622E262E8312031320082E
:100CCA0084000A128A110D200A128A112E3A031D73
:100CDA006F2E702EA72E0130A3002308A007AD01A6
:100CEA00962E831203132D08A3002308F0000A305E
:100CFA000A128A11C0210A128A1183120313A4004C
:100D0A002408AD00200884000A128A110D200A1254
:100D1A008A11D03EA3002308AD070130A30023089F
:100D2A00A007200884000A128A110D200A128A11CB
:100D3A000A128A11AE210A128A110318A52EA62EAA
:100D4A00762EA82EAD01013083120313A007FF30BF
:100D5A00200784000A128A110D200A128A11AE0095
:100D6A00A300A4012408003A0319BC2EE52F230886
:100D7A00003A0319F72F643A0319C72E0D3A0319DB
:100D8A00C72EE52F2608840083130008A800840ACA
:100D9A000008A9000230A3002308A607A91FD62E1F
:100DAA00D72EE02E0330A3002308A704A809A90917
:100DBA00A80A0319A90A2D08031DE42EE52EEF2E11
:100DCA0028082904031DEA2EEB2EEF2E0130A3007A
:100DDA002308AD07AE01AE0A2E08A3002307013E81
:100DEA0084000A128A110D200A128A11A4000A121A
:100DFA008A110D200A128A11A50025082902031D4D
:100E0A00082F2408280203180B2F0C2F0D2F172F39
:100E1A000130A3002308AE0705302E06031D162F46
:100E2A00172FF12E2D08A300A401A31BA403240845
:100E3A00803A803C031D232F23082E020318262FF5
:100E4A00272F2E2F831203132D08A3002308AE0089
:100E5A00482F831203132D08A300A401A31BA40384
:100E6A002408803AA50080302502031D3E2F2E0853
:100E7A0023020318412F422F482F831203132E08EF
:100E8A00A3002308AD00831203132B082C040319B3
:100E9A004F2F502F5C2F270803390319552F562F30
:100EAA005C2FFF30AB070318AC0AFF30AC072C08E5
:100EBA00803A803C031D632F2B082E020318662FED
:100ECA00672F732F831203132E08A300A40123088C
:100EDA00AB022408031CAC03AC02772F8312031362
:100EEA00AB01AC012B082C0403197C2F7D2F942F06
:100EFA002030A3002A0884002308831380000130CD
:100F0A00A3002308AA07FF30AB070318AC0AFF3077
:100F1A00AC072B082C04031D932F942F7D2F270831
:100F2A0003390319992F9A2FDC2F2D30A3002A0891
:100F3A0084002308831380000130A3002308AA0732
:100F4A00DC2F0A30F8000030F9002D08A30023072F
:100F5A00013E84000A128A110D200A128A11F00039
:100F6A000A128A110D200A128A11F1002908F300C7
:100F7A002808F2000A128A1147230A128A117108F4
:100F8A00FB007008FA000A128A11CB220A128A118F
:100F9A007808303E83120313A4002408AE002E08FA
:100FAA00A3002A088400230883138000A12FFF309E
:100FBA00A3002308AD072D0A031DE42FE52FA62F52
:100FCA000130A007FF30200784000A128A110D2081
:100FDA000A128A11A3002308AE002E08031DF62F59
:100FEA00F72FFD2D2A08840083138001080083014E
:060FFA000A128A11732C9B
:04400E00D4E0FFFFFC
:00000001FF
